{
  "_format": "hh-sol-artifact-1",
  "contractName": "InvestmentPlatform",
  "sourceName": "contracts/InvestmentPlatform.sol",
  "abi": [
    {
      "inputs": [],
      "stateMutability": "nonpayable",
      "type": "constructor"
    },
    {
      "inputs": [],
      "name": "EnforcedPause",
      "type": "error"
    },
    {
      "inputs": [],
      "name": "ExpectedPause",
      "type": "error"
    },
    {
      "inputs": [
        {
          "internalType": "address",
          "name": "owner",
          "type": "address"
        }
      ],
      "name": "OwnableInvalidOwner",
      "type": "error"
    },
    {
      "inputs": [
        {
          "internalType": "address",
          "name": "account",
          "type": "address"
        }
      ],
      "name": "OwnableUnauthorizedAccount",
      "type": "error"
    },
    {
      "inputs": [],
      "name": "ReentrancyGuardReentrantCall",
      "type": "error"
    },
    {
      "anonymous": false,
      "inputs": [
        {
          "indexed": true,
          "internalType": "bytes32",
          "name": "campaignKey",
          "type": "bytes32"
        }
      ],
      "name": "CampaignCancelled",
      "type": "event"
    },
    {
      "anonymous": false,
      "inputs": [
        {
          "indexed": true,
          "internalType": "bytes32",
          "name": "campaignKey",
          "type": "bytes32"
        },
        {
          "indexed": false,
          "internalType": "uint256",
          "name": "totalRaised",
          "type": "uint256"
        }
      ],
      "name": "CampaignCompleted",
      "type": "event"
    },
    {
      "anonymous": false,
      "inputs": [
        {
          "indexed": true,
          "internalType": "bytes32",
          "name": "campaignKey",
          "type": "bytes32"
        },
        {
          "indexed": true,
          "internalType": "address",
          "name": "startupWallet",
          "type": "address"
        },
        {
          "indexed": false,
          "internalType": "uint256",
          "name": "fundingGoal",
          "type": "uint256"
        },
        {
          "indexed": false,
          "internalType": "uint256",
          "name": "deadline",
          "type": "uint256"
        },
        {
          "indexed": false,
          "internalType": "uint8",
          "name": "milestoneCount",
          "type": "uint8"
        }
      ],
      "name": "CampaignCreated",
      "type": "event"
    },
    {
      "anonymous": false,
      "inputs": [
        {
          "indexed": true,
          "internalType": "bytes32",
          "name": "campaignKey",
          "type": "bytes32"
        }
      ],
      "name": "CampaignPaused",
      "type": "event"
    },
    {
      "anonymous": false,
      "inputs": [
        {
          "indexed": true,
          "internalType": "bytes32",
          "name": "campaignKey",
          "type": "bytes32"
        }
      ],
      "name": "CampaignUnpaused",
      "type": "event"
    },
    {
      "anonymous": false,
      "inputs": [
        {
          "indexed": true,
          "internalType": "bytes32",
          "name": "campaignKey",
          "type": "bytes32"
        },
        {
          "indexed": true,
          "internalType": "address",
          "name": "investor",
          "type": "address"
        },
        {
          "indexed": false,
          "internalType": "uint256",
          "name": "amount",
          "type": "uint256"
        },
        {
          "indexed": false,
          "internalType": "uint256",
          "name": "totalRaised",
          "type": "uint256"
        }
      ],
      "name": "InvestmentReceived",
      "type": "event"
    },
    {
      "anonymous": false,
      "inputs": [
        {
          "indexed": true,
          "internalType": "bytes32",
          "name": "campaignKey",
          "type": "bytes32"
        },
        {
          "indexed": true,
          "internalType": "address",
          "name": "investor",
          "type": "address"
        },
        {
          "indexed": false,
          "internalType": "uint256",
          "name": "amount",
          "type": "uint256"
        }
      ],
      "name": "InvestorRefunded",
      "type": "event"
    },
    {
      "anonymous": false,
      "inputs": [
        {
          "indexed": true,
          "internalType": "bytes32",
          "name": "campaignKey",
          "type": "bytes32"
        },
        {
          "indexed": false,
          "internalType": "uint8",
          "name": "milestoneIndex",
          "type": "uint8"
        }
      ],
      "name": "MilestoneEvidenceApproved",
      "type": "event"
    },
    {
      "anonymous": false,
      "inputs": [
        {
          "indexed": true,
          "internalType": "bytes32",
          "name": "campaignKey",
          "type": "bytes32"
        },
        {
          "indexed": false,
          "internalType": "uint8",
          "name": "milestoneIndex",
          "type": "uint8"
        },
        {
          "indexed": false,
          "internalType": "string",
          "name": "reason",
          "type": "string"
        }
      ],
      "name": "MilestoneEvidenceRejected",
      "type": "event"
    },
    {
      "anonymous": false,
      "inputs": [
        {
          "indexed": true,
          "internalType": "bytes32",
          "name": "campaignKey",
          "type": "bytes32"
        },
        {
          "indexed": false,
          "internalType": "uint8",
          "name": "milestoneIndex",
          "type": "uint8"
        },
        {
          "indexed": false,
          "internalType": "bytes32",
          "name": "evidenceHash",
          "type": "bytes32"
        },
        {
          "indexed": false,
          "internalType": "bytes32",
          "name": "summaryHash",
          "type": "bytes32"
        }
      ],
      "name": "MilestoneEvidenceSubmitted",
      "type": "event"
    },
    {
      "anonymous": false,
      "inputs": [
        {
          "indexed": true,
          "internalType": "bytes32",
          "name": "campaignKey",
          "type": "bytes32"
        },
        {
          "indexed": false,
          "internalType": "uint8",
          "name": "milestoneIndex",
          "type": "uint8"
        },
        {
          "indexed": false,
          "internalType": "uint256",
          "name": "amount",
          "type": "uint256"
        },
        {
          "indexed": true,
          "internalType": "address",
          "name": "recipient",
          "type": "address"
        }
      ],
      "name": "MilestoneReleased",
      "type": "event"
    },
    {
      "anonymous": false,
      "inputs": [
        {
          "indexed": true,
          "internalType": "address",
          "name": "previousOwner",
          "type": "address"
        },
        {
          "indexed": true,
          "internalType": "address",
          "name": "newOwner",
          "type": "address"
        }
      ],
      "name": "OwnershipTransferStarted",
      "type": "event"
    },
    {
      "anonymous": false,
      "inputs": [
        {
          "indexed": true,
          "internalType": "address",
          "name": "previousOwner",
          "type": "address"
        },
        {
          "indexed": true,
          "internalType": "address",
          "name": "newOwner",
          "type": "address"
        }
      ],
      "name": "OwnershipTransferred",
      "type": "event"
    },
    {
      "anonymous": false,
      "inputs": [
        {
          "indexed": false,
          "internalType": "address",
          "name": "account",
          "type": "address"
        }
      ],
      "name": "Paused",
      "type": "event"
    },
    {
      "anonymous": false,
      "inputs": [
        {
          "indexed": false,
          "internalType": "address",
          "name": "account",
          "type": "address"
        }
      ],
      "name": "Unpaused",
      "type": "event"
    },
    {
      "inputs": [],
      "name": "acceptOwnership",
      "outputs": [],
      "stateMutability": "nonpayable",
      "type": "function"
    },
    {
      "inputs": [
        {
          "internalType": "bytes32",
          "name": "campaignKey",
          "type": "bytes32"
        },
        {
          "internalType": "uint8",
          "name": "milestoneIndex",
          "type": "uint8"
        }
      ],
      "name": "approveMilestoneEvidence",
      "outputs": [],
      "stateMutability": "nonpayable",
      "type": "function"
    },
    {
      "inputs": [
        {
          "internalType": "bytes32",
          "name": "",
          "type": "bytes32"
        }
      ],
      "name": "campaigns",
      "outputs": [
        {
          "internalType": "address",
          "name": "startupWallet",
          "type": "address"
        },
        {
          "internalType": "uint256",
          "name": "fundingGoal",
          "type": "uint256"
        },
        {
          "internalType": "uint256",
          "name": "deadline",
          "type": "uint256"
        },
        {
          "internalType": "uint256",
          "name": "totalRaised",
          "type": "uint256"
        },
        {
          "internalType": "uint8",
          "name": "milestoneCount",
          "type": "uint8"
        },
        {
          "internalType": "uint8",
          "name": "currentMilestoneIndex",
          "type": "uint8"
        },
        {
          "internalType": "enum InvestmentPlatform.CampaignStatus",
          "name": "status",
          "type": "uint8"
        }
      ],
      "stateMutability": "view",
      "type": "function"
    },
    {
      "inputs": [
        {
          "internalType": "bytes32",
          "name": "campaignKey",
          "type": "bytes32"
        }
      ],
      "name": "cancelCampaign",
      "outputs": [],
      "stateMutability": "nonpayable",
      "type": "function"
    },
    {
      "inputs": [
        {
          "internalType": "bytes32",
          "name": "campaignKey",
          "type": "bytes32"
        },
        {
          "internalType": "address",
          "name": "startupWallet",
          "type": "address"
        },
        {
          "internalType": "uint256",
          "name": "fundingGoal",
          "type": "uint256"
        },
        {
          "internalType": "uint256",
          "name": "deadline",
          "type": "uint256"
        },
        {
          "internalType": "uint8",
          "name": "milestoneCount",
          "type": "uint8"
        },
        {
          "internalType": "uint8[5]",
          "name": "milestonePercentages",
          "type": "uint8[5]"
        }
      ],
      "name": "createCampaign",
      "outputs": [],
      "stateMutability": "nonpayable",
      "type": "function"
    },
    {
      "inputs": [],
      "name": "emergencyPause",
      "outputs": [],
      "stateMutability": "nonpayable",
      "type": "function"
    },
    {
      "inputs": [],
      "name": "emergencyUnpause",
      "outputs": [],
      "stateMutability": "nonpayable",
      "type": "function"
    },
    {
      "inputs": [
        {
          "internalType": "bytes32",
          "name": "campaignKey",
          "type": "bytes32"
        }
      ],
      "name": "getCampaign",
      "outputs": [
        {
          "components": [
            {
              "internalType": "address",
              "name": "startupWallet",
              "type": "address"
            },
            {
              "internalType": "uint256",
              "name": "fundingGoal",
              "type": "uint256"
            },
            {
              "internalType": "uint256",
              "name": "deadline",
              "type": "uint256"
            },
            {
              "internalType": "uint256",
              "name": "totalRaised",
              "type": "uint256"
            },
            {
              "internalType": "uint8",
              "name": "milestoneCount",
              "type": "uint8"
            },
            {
              "internalType": "uint8",
              "name": "currentMilestoneIndex",
              "type": "uint8"
            },
            {
              "internalType": "uint8[5]",
              "name": "milestonePercentages",
              "type": "uint8[5]"
            },
            {
              "internalType": "enum InvestmentPlatform.CampaignStatus",
              "name": "status",
              "type": "uint8"
            },
            {
              "components": [
                {
                  "internalType": "bytes32",
                  "name": "evidenceHash",
                  "type": "bytes32"
                },
                {
                  "internalType": "bytes32",
                  "name": "summaryHash",
                  "type": "bytes32"
                },
                {
                  "internalType": "uint256",
                  "name": "submittedAt",
                  "type": "uint256"
                },
                {
                  "internalType": "uint256",
                  "name": "releasedAt",
                  "type": "uint256"
                },
                {
                  "internalType": "enum InvestmentPlatform.MilestoneStatus",
                  "name": "status",
                  "type": "uint8"
                }
              ],
              "internalType": "struct InvestmentPlatform.MilestoneAnchor[5]",
              "name": "milestones",
              "type": "tuple[5]"
            }
          ],
          "internalType": "struct InvestmentPlatform.Campaign",
          "name": "",
          "type": "tuple"
        }
      ],
      "stateMutability": "view",
      "type": "function"
    },
    {
      "inputs": [
        {
          "internalType": "bytes32",
          "name": "campaignKey",
          "type": "bytes32"
        }
      ],
      "name": "getCampaignDetails",
      "outputs": [
        {
          "components": [
            {
              "internalType": "address",
              "name": "startupWallet",
              "type": "address"
            },
            {
              "internalType": "uint256",
              "name": "fundingGoal",
              "type": "uint256"
            },
            {
              "internalType": "uint256",
              "name": "deadline",
              "type": "uint256"
            },
            {
              "internalType": "uint256",
              "name": "totalRaised",
              "type": "uint256"
            },
            {
              "internalType": "uint8",
              "name": "milestoneCount",
              "type": "uint8"
            },
            {
              "internalType": "uint8",
              "name": "currentMilestoneIndex",
              "type": "uint8"
            },
            {
              "internalType": "uint8[5]",
              "name": "milestonePercentages",
              "type": "uint8[5]"
            },
            {
              "internalType": "enum InvestmentPlatform.CampaignStatus",
              "name": "status",
              "type": "uint8"
            },
            {
              "components": [
                {
                  "internalType": "bytes32",
                  "name": "evidenceHash",
                  "type": "bytes32"
                },
                {
                  "internalType": "bytes32",
                  "name": "summaryHash",
                  "type": "bytes32"
                },
                {
                  "internalType": "uint256",
                  "name": "submittedAt",
                  "type": "uint256"
                },
                {
                  "internalType": "uint256",
                  "name": "releasedAt",
                  "type": "uint256"
                },
                {
                  "internalType": "enum InvestmentPlatform.MilestoneStatus",
                  "name": "status",
                  "type": "uint8"
                }
              ],
              "internalType": "struct InvestmentPlatform.MilestoneAnchor[5]",
              "name": "milestones",
              "type": "tuple[5]"
            }
          ],
          "internalType": "struct InvestmentPlatform.Campaign",
          "name": "",
          "type": "tuple"
        }
      ],
      "stateMutability": "view",
      "type": "function"
    },
    {
      "inputs": [
        {
          "internalType": "bytes32",
          "name": "campaignKey",
          "type": "bytes32"
        }
      ],
      "name": "getCampaignStatus",
      "outputs": [
        {
          "internalType": "uint8",
          "name": "",
          "type": "uint8"
        }
      ],
      "stateMutability": "view",
      "type": "function"
    },
    {
      "inputs": [
        {
          "internalType": "bytes32",
          "name": "campaignKey",
          "type": "bytes32"
        },
        {
          "internalType": "address",
          "name": "investor",
          "type": "address"
        }
      ],
      "name": "getInvestment",
      "outputs": [
        {
          "internalType": "uint256",
          "name": "",
          "type": "uint256"
        }
      ],
      "stateMutability": "view",
      "type": "function"
    },
    {
      "inputs": [
        {
          "internalType": "bytes32",
          "name": "campaignKey",
          "type": "bytes32"
        },
        {
          "internalType": "address",
          "name": "investor",
          "type": "address"
        }
      ],
      "name": "getInvestorContribution",
      "outputs": [
        {
          "internalType": "uint256",
          "name": "",
          "type": "uint256"
        }
      ],
      "stateMutability": "view",
      "type": "function"
    },
    {
      "inputs": [
        {
          "internalType": "bytes32",
          "name": "campaignKey",
          "type": "bytes32"
        },
        {
          "internalType": "uint8",
          "name": "milestoneIndex",
          "type": "uint8"
        }
      ],
      "name": "getMilestoneDetails",
      "outputs": [
        {
          "components": [
            {
              "internalType": "bytes32",
              "name": "evidenceHash",
              "type": "bytes32"
            },
            {
              "internalType": "bytes32",
              "name": "summaryHash",
              "type": "bytes32"
            },
            {
              "internalType": "uint256",
              "name": "submittedAt",
              "type": "uint256"
            },
            {
              "internalType": "uint256",
              "name": "releasedAt",
              "type": "uint256"
            },
            {
              "internalType": "enum InvestmentPlatform.MilestoneStatus",
              "name": "status",
              "type": "uint8"
            }
          ],
          "internalType": "struct InvestmentPlatform.MilestoneAnchor",
          "name": "",
          "type": "tuple"
        }
      ],
      "stateMutability": "view",
      "type": "function"
    },
    {
      "inputs": [
        {
          "internalType": "bytes32",
          "name": "campaignKey",
          "type": "bytes32"
        }
      ],
      "name": "getTotalRaised",
      "outputs": [
        {
          "internalType": "uint256",
          "name": "",
          "type": "uint256"
        }
      ],
      "stateMutability": "view",
      "type": "function"
    },
    {
      "inputs": [
        {
          "internalType": "bytes32",
          "name": "campaignKey",
          "type": "bytes32"
        }
      ],
      "name": "invest",
      "outputs": [],
      "stateMutability": "payable",
      "type": "function"
    },
    {
      "inputs": [
        {
          "internalType": "bytes32",
          "name": "",
          "type": "bytes32"
        },
        {
          "internalType": "address",
          "name": "",
          "type": "address"
        }
      ],
      "name": "investments",
      "outputs": [
        {
          "internalType": "uint256",
          "name": "",
          "type": "uint256"
        }
      ],
      "stateMutability": "view",
      "type": "function"
    },
    {
      "inputs": [],
      "name": "owner",
      "outputs": [
        {
          "internalType": "address",
          "name": "",
          "type": "address"
        }
      ],
      "stateMutability": "view",
      "type": "function"
    },
    {
      "inputs": [
        {
          "internalType": "bytes32",
          "name": "campaignKey",
          "type": "bytes32"
        }
      ],
      "name": "pauseCampaign",
      "outputs": [],
      "stateMutability": "nonpayable",
      "type": "function"
    },
    {
      "inputs": [],
      "name": "paused",
      "outputs": [
        {
          "internalType": "bool",
          "name": "",
          "type": "bool"
        }
      ],
      "stateMutability": "view",
      "type": "function"
    },
    {
      "inputs": [],
      "name": "pendingOwner",
      "outputs": [
        {
          "internalType": "address",
          "name": "",
          "type": "address"
        }
      ],
      "stateMutability": "view",
      "type": "function"
    },
    {
      "inputs": [
        {
          "internalType": "bytes32",
          "name": "campaignKey",
          "type": "bytes32"
        }
      ],
      "name": "refundInvestor",
      "outputs": [],
      "stateMutability": "nonpayable",
      "type": "function"
    },
    {
      "inputs": [
        {
          "internalType": "bytes32",
          "name": "campaignKey",
          "type": "bytes32"
        },
        {
          "internalType": "uint8",
          "name": "milestoneIndex",
          "type": "uint8"
        },
        {
          "internalType": "string",
          "name": "reason",
          "type": "string"
        }
      ],
      "name": "rejectMilestoneEvidence",
      "outputs": [],
      "stateMutability": "nonpayable",
      "type": "function"
    },
    {
      "inputs": [
        {
          "internalType": "bytes32",
          "name": "campaignKey",
          "type": "bytes32"
        },
        {
          "internalType": "uint8",
          "name": "milestoneIndex",
          "type": "uint8"
        }
      ],
      "name": "releaseMilestone",
      "outputs": [],
      "stateMutability": "nonpayable",
      "type": "function"
    },
    {
      "inputs": [],
      "name": "renounceOwnership",
      "outputs": [],
      "stateMutability": "nonpayable",
      "type": "function"
    },
    {
      "inputs": [
        {
          "internalType": "bytes32",
          "name": "campaignKey",
          "type": "bytes32"
        },
        {
          "internalType": "uint8",
          "name": "milestoneIndex",
          "type": "uint8"
        },
        {
          "internalType": "bytes32",
          "name": "evidenceHash",
          "type": "bytes32"
        },
        {
          "internalType": "bytes32",
          "name": "summaryHash",
          "type": "bytes32"
        }
      ],
      "name": "submitMilestoneEvidenceHash",
      "outputs": [],
      "stateMutability": "nonpayable",
      "type": "function"
    },
    {
      "inputs": [
        {
          "internalType": "address",
          "name": "newOwner",
          "type": "address"
        }
      ],
      "name": "transferOwnership",
      "outputs": [],
      "stateMutability": "nonpayable",
      "type": "function"
    },
    {
      "inputs": [
        {
          "internalType": "bytes32",
          "name": "campaignKey",
          "type": "bytes32"
        }
      ],
      "name": "unpauseCampaign",
      "outputs": [],
      "stateMutability": "nonpayable",
      "type": "function"
    },
    {
      "stateMutability": "payable",
      "type": "receive"
    }
  ],
  "bytecode": "0x60806040523480156200001157600080fd5b5060017f9b779b17422d0df92223018b32b4d1fa46e071723d6817e2486d003becc55f005533806200005d57604051631e4fbdf760e01b81526000600482015260240160405180910390fd5b62000068816200006f565b50620000dd565b600180546001600160a01b03191690556200008a816200008d565b50565b600080546001600160a01b038381166001600160a01b0319831681178455604051919092169283917f8be0079c531659141344cd1fd0a4f28419497f9722a3daafe3b4186f6b6457e09190a35050565b612f9880620000ed6000396000f3fe60806040526004361061019f5760003560e01c8063715018a6116100ec578063cabe04521161008a578063e30c397811610064578063e30c397814610565578063f239932d14610583578063f2fde38b146105a3578063f8673919146105c357600080fd5b8063cabe045214610525578063ce4dd85314610288578063df8bb1401461054557600080fd5b8063817de1b6116100c6578063817de1b6146104355780638da5cb5b146104625780639eca2f1e14610494578063c25760041461051257600080fd5b8063715018a6146103eb57806373085cfe1461040057806379ba50971461042057600080fd5b80632db020771161015957806352d980831161013357806352d98083146103545780635c975abb146103745780635f55e1a61461039e5780636ac6502a146103cb57600080fd5b80632db020771461030a5780634a4e3bd51461032a57806351858e271461033f57600080fd5b8062a17ff51461020b578063019a7e33146102565780630def8de71461028857806314bb93d0146102a85780631e8dcdb9146102ca578063241ed15b146102ea57600080fd5b366102065760405162461bcd60e51b815260206004820152602c60248201527f496e766573746d656e74506c6174666f726d3a2055736520696e76657374282960448201526b081d1bc81cd95b99081413d360a21b60648201526084015b60405180910390fd5b600080fd5b34801561021757600080fd5b50610243610226366004612983565b600360209081526000928352604080842090915290825290205481565b6040519081526020015b60405180910390f35b34801561026257600080fd5b506102766102713660046129af565b6105e3565b60405160ff909116815260200161024d565b34801561029457600080fd5b506102436102a3366004612983565b610640565b3480156102b457600080fd5b506102c86102c33660046129d9565b61066a565b005b3480156102d657600080fd5b506102c86102e5366004612a14565b610a3b565b3480156102f657600080fd5b506102c8610305366004612a7d565b610fb4565b34801561031657600080fd5b506102c86103253660046129af565b611134565b34801561033657600080fd5b506102c86113a5565b34801561034b57600080fd5b506102c86113b7565b34801561036057600080fd5b506102c861036f3660046129af565b6113c7565b34801561038057600080fd5b50600154600160a01b900460ff16604051901515815260200161024d565b3480156103aa57600080fd5b506103be6103b93660046129af565b6114dc565b60405161024d9190612b76565b3480156103d757600080fd5b506102c86103e6366004612a7d565b6116b0565b3480156103f757600080fd5b506102c8611cc8565b34801561040c57600080fd5b506102c861041b366004612c0c565b611cda565b34801561042c57600080fd5b506102c8611e36565b34801561044157600080fd5b50610455610450366004612a7d565b611e77565b60405161024d9190612c93565b34801561046e57600080fd5b506000546001600160a01b03165b6040516001600160a01b03909116815260200161024d565b3480156104a057600080fd5b506104ff6104af3660046129af565b60026020819052600091825260409091208054600182015492820154600383015460048401546006909401546001600160a01b0390931694939192909160ff808216926101009092048116911687565b60405161024d9796959493929190612ca1565b6102c86105203660046129af565b611fab565b34801561053157600080fd5b506103be6105403660046129af565b612202565b34801561055157600080fd5b506102c86105603660046129af565b6123c7565b34801561057157600080fd5b506001546001600160a01b031661047c565b34801561058f57600080fd5b506102c861059e3660046129af565b612501565b3480156105af57600080fd5b506102c86105be366004612cf2565b612608565b3480156105cf57600080fd5b506102436105de3660046129af565b612679565b60008181526002602052604081206001015482906106135760405162461bcd60e51b81526004016101fd90612d0d565b60008381526002602052604090206006015460ff16600481111561063957610639612acc565b9392505050565b60008281526003602090815260408083206001600160a01b03851684529091529020545b92915050565b6106726126c0565b60008481526002602052604090206001015484906106a25760405162461bcd60e51b81526004016101fd90612d0d565b60008581526002602052604090206001600682015460ff1660048111156106cb576106cb612acc565b14806106ef57506002600682015460ff1660048111156106ed576106ed612acc565b145b6107725760405162461bcd60e51b815260206004820152604860248201527f496e766573746d656e74506c6174666f726d3a2043616d706169676e206d757360448201527f7420626520416374697665206f722050617573656420746f207375626d69742060648201526765766964656e636560c01b608482015260a4016101fd565b600481015460ff86811661010090920416146108045760405162461bcd60e51b8152602060048201526044602482018190527f496e766573746d656e74506c6174666f726d3a204d757374207375626d697420908201527f65766964656e636520666f722063757272656e74206d696c6573746f6e6520696064820152630dcc8caf60e31b608482015260a4016101fd565b600481015460ff9081169086161061082e5760405162461bcd60e51b81526004016101fd90612d53565b836108955760405162461bcd60e51b815260206004820152603160248201527f496e766573746d656e74506c6174666f726d3a2065766964656e636548617368604482015270206d757374206e6f74206265207a65726f60781b60648201526084016101fd565b826108fb5760405162461bcd60e51b815260206004820152603060248201527f496e766573746d656e74506c6174666f726d3a2073756d6d617279486173682060448201526f6d757374206e6f74206265207a65726f60801b60648201526084016101fd565b6000816007018660ff166005811061091557610915612da2565b600502019050600060048083015460ff169081111561093657610936612acc565b148061095a5750600360048083015460ff169081111561095857610958612acc565b145b6109cc5760405162461bcd60e51b815260206004820152603a60248201527f496e766573746d656e74506c6174666f726d3a2045766964656e636520616c7260448201527f65616479207375626d6974746564206f722072656c656173656400000000000060648201526084016101fd565b848155600180820185905542600283015560048201805460ff191690911790556040805160ff881681526020810187905290810185905287907fae87d12bbae6adf3469c3c89dd5b9c94b7941b7c53f532c1508fb9e3a4390a969060600160405180910390a250505050505050565b610a436126c0565b60008681526002602052604090206001015415610ab65760405162461bcd60e51b815260206004820152602b60248201527f496e766573746d656e74506c6174666f726d3a2043616d706169676e20616c7260448201526a656164792065786973747360a81b60648201526084016101fd565b6001600160a01b038516610b1f5760405162461bcd60e51b815260206004820152602a60248201527f496e766573746d656e74506c6174666f726d3a20496e76616c696420737461726044820152691d1d5c081dd85b1b195d60b21b60648201526084016101fd565b60008411610b845760405162461bcd60e51b815260206004820152602c60248201527f496e766573746d656e74506c6174666f726d3a2046756e64696e6720676f616c60448201526b0206d757374206265203e20360a41b60648201526084016101fd565b428311610bee5760405162461bcd60e51b815260206004820152603260248201527f496e766573746d656e74506c6174666f726d3a20446561646c696e65206d75736044820152717420626520696e207468652066757475726560701b60648201526084016101fd565b60018260ff1610158015610c06575060058260ff1611155b610c695760405162461bcd60e51b815260206004820152602e60248201527f496e766573746d656e74506c6174666f726d3a206d696c6573746f6e65436f7560448201526d6e74206d75737420626520312d3560901b60648201526084016101fd565b6000805b8360ff168160ff161015610d5a576000838260ff1660058110610c9257610c92612da2565b602002016020810190610ca59190612db8565b60ff1611610d1b5760405162461bcd60e51b815260206004820152603b60248201527f496e766573746d656e74506c6174666f726d3a20416374697665206d696c657360448201527f746f6e652070657263656e74616765206d757374206265203e2030000000000060648201526084016101fd565b828160ff1660058110610d3057610d30612da2565b602002016020810190610d439190612db8565b610d509060ff1683612de9565b9150600101610c6d565b5080606414610dd15760405162461bcd60e51b815260206004820152603960248201527f496e766573746d656e74506c6174666f726d3a204d696c6573746f6e6520706560448201527f7263656e7461676573206d7573742073756d20746f203130300000000000000060648201526084016101fd565b825b60058160ff161015610e7c57828160ff1660058110610df457610df4612da2565b602002016020810190610e079190612db8565b60ff1615610e745760405162461bcd60e51b815260206004820152603460248201527f496e766573746d656e74506c6174666f726d3a20556e75736564206d696c65736044820152730746f6e6520736c6f7473206d75737420626520360641b60648201526084016101fd565b600101610dd3565b506000878152600260208190526040822080546001600160a01b0319166001600160a01b038a1617815560018082018990559181018790556003810183905560048101805460ff881661ffff1990911617905560068101805460ff1916909217909155905b60058160ff161015610f5a57838160ff1660058110610f0257610f02612da2565b602002016020810190610f159190612db8565b826005018260ff1660058110610f2d57610f2d612da2565b602091828204019190066101000a81548160ff021916908360ff1602179055508080600101915050610ee1565b50604080518781526020810187905260ff86168183015290516001600160a01b038916918a917f6b518d45a652ee6bb5c001c6dcdb307b5bccb4296cad8cc222655bcca2cc2d859181900360600190a35050505050505050565b610fbc6126c0565b6000828152600260205260409020600101548290610fec5760405162461bcd60e51b81526004016101fd90612d0d565b6000838152600260205260409020600481015460ff84811661010090920416146110285760405162461bcd60e51b81526004016101fd90612dfc565b600481015460ff908116908416106110525760405162461bcd60e51b81526004016101fd90612d53565b6001816007018460ff166005811061106c5761106c612da2565b6005020160040160009054906101000a900460ff16600481111561109257611092612acc565b146110af5760405162461bcd60e51b81526004016101fd90612e59565b6002816007018460ff16600581106110c9576110c9612da2565b6005020160040160006101000a81548160ff021916908360048111156110f1576110f1612acc565b021790555060405160ff8416815284907f7d1b43ee05ce704fe3bb2d867fc98dc5d12341781d316dc6623db26440eeaeb39060200160405180910390a250505050565b61113c6126ed565b600081815260026020526040902060010154819061116c5760405162461bcd60e51b81526004016101fd90612d0d565b600360008381526002602052604090206006015460ff16600481111561119457611194612acc565b146112125760405162461bcd60e51b815260206004820152604260248201527f496e766573746d656e74506c6174666f726d3a20526566756e6473206f6e6c7960448201527f20617661696c61626c6520666f722043616e63656c6c65642063616d706169676064820152616e7360f01b608482015260a4016101fd565b60008281526003602090815260408083203384529091529020548061128d5760405162461bcd60e51b815260206004820152602b60248201527f496e766573746d656e74506c6174666f726d3a204e6f20696e766573746d656e60448201526a1d081d1bc81c99599d5b9960aa1b60648201526084016101fd565b600083815260036020908152604080832033808552908352818420939093555183815285917ff63d2d423eaf894365bf76b02106d3ec7b0b0c767e642c89c5a40a747a44d507910160405180910390a3604051600090339083908381818185875af1925050503d806000811461131f576040519150601f19603f3d011682016040523d82523d6000602084013e611324565b606091505b50509050806113885760405162461bcd60e51b815260206004820152602a60248201527f496e766573746d656e74506c6174666f726d3a20526566756e64207472616e7360448201526919995c8819985a5b195960b21b60648201526084016101fd565b5050506113a26001600080516020612f4383398151915255565b50565b6113ad6126c0565b6113b5612709565b565b6113bf6126c0565b6113b561275e565b6113cf6126c0565b60008181526002602052604090206001015481906113ff5760405162461bcd60e51b81526004016101fd90612d0d565b600160008381526002602052604090206006015460ff16600481111561142757611427612acc565b146114925760405162461bcd60e51b815260206004820152603560248201527f496e766573746d656e74506c6174666f726d3a2043616e206f6e6c792070617560448201527439b29030b71020b1ba34bb329031b0b6b830b4b3b760591b60648201526084016101fd565b6000828152600260208190526040808320600601805460ff19169092179091555183917fcfa766fa6374d9a988bf0865e1ffa2051bfecd7c992e5496cd4b5ee88dfc564391a25050565b6114e461288f565b60008281526002602052604090206001015482906115145760405162461bcd60e51b81526004016101fd90612d0d565b600083815260026020818152604080842081516101208101835281546001600160a01b03168152600182015493810193909352928301548282015260038301546060830152600483015460ff80821660808501526101009091041660a080840191909152815190810191829052919360c0850192916005808601929091908390855b825461010083900a900460ff1681526020600192830181810494850194909303909202910180841161159657505050928452505050600682015460209091019060ff1660048111156115ea576115ea612acc565b60048111156115fb576115fb612acc565b81526040805160a081019091526020909101906007830160056000835b828210156116a1578382600502016040518060a0016040529081600082015481526020016001820154815260200160028201548152602001600382015481526020016004820160009054906101000a900460ff16600481111561167d5761167d612acc565b600481111561168e5761168e612acc565b8152505081526020019060010190611618565b50505091525090949350505050565b6116b86126c0565b6116c06126ed565b60008281526002602052604090206001015482906116f05760405162461bcd60e51b81526004016101fd90612d0d565b6000838152600260205260409020600681015460ff16600181600481111561171a5761171a612acc565b14806117375750600281600481111561173557611735612acc565b145b6117b85760405162461bcd60e51b815260206004820152604660248201527f496e766573746d656e74506c6174666f726d3a2043616d706169676e206d757360448201527f7420626520416374697665206f722050617573656420746f2072656c656173656064820152652066756e647360d01b608482015260a4016101fd565b600482015460ff85811661010090920416146117e65760405162461bcd60e51b81526004016101fd90612dfc565b600482015460ff9081169085161061185c5760405162461bcd60e51b815260206004820152603360248201527f496e766573746d656e74506c6174666f726d3a20416c6c206d696c6573746f6e604482015272195cc8185b1c9958591e481c995b19585cd959606a1b60648201526084016101fd565b6002826007018560ff166005811061187657611876612da2565b6005020160040160009054906101000a900460ff16600481111561189c5761189c612acc565b1461190f5760405162461bcd60e51b815260206004820152603c60248201527f496e766573746d656e74506c6174666f726d3a2045766964656e6365206d757360448201527f7420626520417070726f766564206265666f72652072656c656173650000000060648201526084016101fd565b600082600301541161196f5760405162461bcd60e51b815260206004820152602360248201527f496e766573746d656e74506c6174666f726d3a204e6f2066756e6473207261696044820152621cd95960ea1b60648201526084016101fd565b60006064836005018660ff166005811061198b5761198b612da2565b602091828204019190069054906101000a900460ff1660ff1684600301546119b39190612eb7565b6119bd9190612ece565b905060008111611a2b5760405162461bcd60e51b815260206004820152603360248201527f496e766573746d656e74506c6174666f726d3a20436f6d70757465642072656c6044820152726561736520616d6f756e74206973207a65726f60681b60648201526084016101fd565b80471015611a955760405162461bcd60e51b815260206004820152603160248201527f496e766573746d656e74506c6174666f726d3a20496e73756666696369656e7460448201527020636f6e74726163742062616c616e636560781b60648201526084016101fd565b6004836007018660ff1660058110611aaf57611aaf612da2565b6005020160040160006101000a81548160ff02191690836004811115611ad757611ad7612acc565b021790555042836007018660ff1660058110611af557611af5612da2565b600502016003018190555060018360040160018282829054906101000a900460ff16611b219190612ef0565b825460ff91821661010093840a90810290830219909116179092556004860154908104821691161490508015611b9b5760068401805460ff19166004179055600384015460405190815287907f39c59e243b727b972e7c4ce6e5d7e6ce2c886e018b0ce40d214e17624d51b0829060200160405180910390a25b83546040805160ff89168152602081018590526001600160a01b039092169189917fd7f3ca3274297caad3d103e6b1077eb37bed1db303823332cca9263023ce75e2910160405180910390a383546040516000916001600160a01b03169084908381818185875af1925050503d8060008114611c33576040519150601f19603f3d011682016040523d82523d6000602084013e611c38565b606091505b5050905080611ca75760405162461bcd60e51b815260206004820152603560248201527f496e766573746d656e74506c6174666f726d3a205472616e7366657220746f206044820152741cdd185c9d1d5c081dd85b1b195d0819985a5b1959605a1b60648201526084016101fd565b505050505050611cc46001600080516020612f4383398151915255565b5050565b611cd06126c0565b6113b560006127a1565b611ce26126c0565b6000848152600260205260409020600101548490611d125760405162461bcd60e51b81526004016101fd90612d0d565b6000858152600260205260409020600481015460ff8681166101009092041614611d4e5760405162461bcd60e51b81526004016101fd90612dfc565b6001816007018660ff1660058110611d6857611d68612da2565b6005020160040160009054906101000a900460ff166004811115611d8e57611d8e612acc565b14611dab5760405162461bcd60e51b81526004016101fd90612e59565b6003816007018660ff1660058110611dc557611dc5612da2565b6005020160040160006101000a81548160ff02191690836004811115611ded57611ded612acc565b0217905550857fb75555832328303cc73f1d25ddbd06e2c0b5f2f1f784e755728e2ad01f7e9471868686604051611e2693929190612f09565b60405180910390a2505050505050565b60015433906001600160a01b03168114611e6e5760405163118cdaa760e01b81526001600160a01b03821660048201526024016101fd565b6113a2816127a1565b611ea66040805160a0810182526000808252602082018190529181018290526060810182905290608082015290565b6000838152600260205260409020600101548390611ed65760405162461bcd60e51b81526004016101fd90612d0d565b60008481526002602052604090206004015460ff90811690841610611f0d5760405162461bcd60e51b81526004016101fd90612d53565b600084815260026020526040902060070160ff841660058110611f3257611f32612da2565b600502016040518060a0016040529081600082015481526020016001820154815260200160028201548152602001600382015481526020016004820160009054906101000a900460ff166004811115611f8d57611f8d612acc565b6004811115611f9e57611f9e612acc565b90525091505b5092915050565b611fb36126ed565b611fbb6127ba565b6000818152600260205260409020600101548190611feb5760405162461bcd60e51b81526004016101fd90612d0d565b60008281526002602052604090206001600682015460ff16600481111561201457612014612acc565b146120875760405162461bcd60e51b815260206004820152603960248201527f496e766573746d656e74506c6174666f726d3a2043616d706169676e2069732060448201527f6e6f7420616363657074696e6720696e766573746d656e74730000000000000060648201526084016101fd565b806002015442106120f35760405162461bcd60e51b815260206004820152603060248201527f496e766573746d656e74506c6174666f726d3a2043616d706169676e2064656160448201526f191b1a5b99481a185cc81c185cdcd95960821b60648201526084016101fd565b6000341161215d5760405162461bcd60e51b815260206004820152603160248201527f496e766573746d656e74506c6174666f726d3a20496e766573746d656e74206160448201527006d6f756e74206d757374206265203e203607c1b60648201526084016101fd565b600083815260036020908152604080832033845290915281208054349290612186908490612de9565b92505081905550348160030160008282546121a19190612de9565b90915550506003810154604080513481526020810192909252339185917f7a6759d342bd7ec3cd6bf31bfc9e0c1a42996c6000c5b96871ae2a4aafbda0e0910160405180910390a350506113a26001600080516020612f4383398151915255565b61220a61288f565b600082815260026020526040902060010154829061223a5760405162461bcd60e51b81526004016101fd90612d0d565b600083815260026020818152604080842081516101208101835281546001600160a01b03168152600182015493810193909352928301548282015260038301546060830152600483015460ff80821660808501526101009091041660a080840191909152815190810191829052919360c0850192916005808601929091908390855b825461010083900a900460ff168152602060019283018181049485019490930390920291018084116122bc57505050928452505050600682015460209091019060ff16600481111561231057612310612acc565b600481111561232157612321612acc565b81526040805160a081019091526020909101906007830160056000835b828210156116a1578382600502016040518060a0016040529081600082015481526020016001820154815260200160028201548152602001600382015481526020016004820160009054906101000a900460ff1660048111156123a3576123a3612acc565b60048111156123b4576123b4612acc565b815250508152602001906001019061233e565b6123cf6126c0565b60008181526002602052604090206001015481906123ff5760405162461bcd60e51b81526004016101fd90612d0d565b60008281526002602052604090206006015460ff16600181600481111561242857612428612acc565b14806124455750600281600481111561244357612443612acc565b145b6124b9576040805162461bcd60e51b81526020600482015260248101919091527f496e766573746d656e74506c6174666f726d3a2043616e206f6e6c792063616e60448201527f63656c20616e20416374697665206f72205061757365642063616d706169676e60648201526084016101fd565b600083815260026020526040808220600601805460ff191660031790555184917fb5f595e26a03d2e65da223bde94f4ec98dfe6a5debfa90ff996c45e9d394943991a2505050565b6125096126c0565b60008181526002602052604090206001015481906125395760405162461bcd60e51b81526004016101fd90612d0d565b600260008381526002602052604090206006015460ff16600481111561256157612561612acc565b146125c15760405162461bcd60e51b815260206004820152602a60248201527f496e766573746d656e74506c6174666f726d3a2043616d706169676e206973206044820152691b9bdd081c185d5cd95960b21b60648201526084016101fd565b600082815260026020526040808220600601805460ff191660011790555183917f7d1b6a72b9e5740e470f61e9cbb77aadf0e7366638636491c778e6355c0b43af91a25050565b6126106126c0565b600180546001600160a01b0383166001600160a01b031990911681179091556126416000546001600160a01b031690565b6001600160a01b03167f38d16b8cac22d99fc7c124b9cd0de2d3fa1faef420bfe791d8c362d765e2270060405160405180910390a350565b60008181526002602052604081206001015482906126a95760405162461bcd60e51b81526004016101fd90612d0d565b505060009081526002602052604090206003015490565b6000546001600160a01b031633146113b55760405163118cdaa760e01b81523360048201526024016101fd565b6126f56127e5565b6002600080516020612f4383398151915255565b612711612815565b6001805460ff60a01b191690557f5db9ee0a495bf2e6ff9c91a7834c1ba4fdd244a5e8aa4e537bd38aeae4b073aa335b6040516001600160a01b03909116815260200160405180910390a1565b6127666127ba565b6001805460ff60a01b1916600160a01b1790557f62e78cea01bee320cd4e420270b5ea74000d11b0c9f74754ebdbfc544b05a2586127413390565b600180546001600160a01b03191690556113a28161283f565b600154600160a01b900460ff16156113b55760405163d93c066560e01b815260040160405180910390fd5b600080516020612f43833981519152546002036113b557604051633ee5aeb560e01b815260040160405180910390fd5b600154600160a01b900460ff166113b557604051638dfc202b60e01b815260040160405180910390fd5b600080546001600160a01b038381166001600160a01b0319831681178455604051919092169283917f8be0079c531659141344cd1fd0a4f28419497f9722a3daafe3b4186f6b6457e09190a35050565b60405180610120016040528060006001600160a01b03168152602001600081526020016000815260200160008152602001600060ff168152602001600060ff1681526020016128dc6128f5565b8152602001600081526020016128f0612913565b905290565b6040518060a001604052806005906020820280368337509192915050565b6040518060a001604052806005905b6129516040805160a0810182526000808252602082018190529181018290526060810182905290608082015290565b8152602001906001900390816129225790505090565b80356001600160a01b038116811461297e57600080fd5b919050565b6000806040838503121561299657600080fd5b823591506129a660208401612967565b90509250929050565b6000602082840312156129c157600080fd5b5035919050565b803560ff8116811461297e57600080fd5b600080600080608085870312156129ef57600080fd5b843593506129ff602086016129c8565b93969395505050506040820135916060013590565b60008060008060008061014080888a031215612a2f57600080fd5b87359650612a3f60208901612967565b95506040880135945060608801359350612a5b608089016129c8565b9250888189011115612a6c57600080fd5b5060a0870190509295509295509295565b60008060408385031215612a9057600080fd5b823591506129a6602084016129c8565b8060005b6005811015612ac657815160ff16845260209384019390910190600101612aa4565b50505050565b634e487b7160e01b600052602160045260246000fd5b600581106113a257634e487b7160e01b600052602160045260246000fd5b612b0981612ae2565b9052565b805182526020810151602083015260408101516040830152606081015160608301526080810151612b3d81612ae2565b806080840152505050565b8060005b6005811015612ac657612b60848351612b0d565b60a0939093019260209190910190600101612b4c565b81516001600160a01b031681526020808301519082015260408083015190820152606080830151908201526080808301516104a0830191612bbb9084018260ff169052565b5060a0830151612bd060a084018260ff169052565b5060c0830151612be360c0840182612aa0565b5060e0830151612bf7610160840182612b00565b50610100830151611fa4610180840182612b48565b60008060008060608587031215612c2257600080fd5b84359350612c32602086016129c8565b9250604085013567ffffffffffffffff80821115612c4f57600080fd5b818701915087601f830112612c6357600080fd5b813581811115612c7257600080fd5b886020828501011115612c8457600080fd5b95989497505060200194505050565b60a081016106648284612b0d565b6001600160a01b038816815260208101879052604081018690526060810185905260ff8481166080830152831660a082015260e08101612ce083612ae2565b8260c083015298975050505050505050565b600060208284031215612d0457600080fd5b61063982612967565b60208082526026908201527f496e766573746d656e74506c6174666f726d3a2043616d706169676e206e6f7460408201526508199bdd5b9960d21b606082015260800190565b6020808252602f908201527f496e766573746d656e74506c6174666f726d3a206d696c6573746f6e65496e6460408201526e6578206f7574206f662072616e676560881b606082015260800190565b634e487b7160e01b600052603260045260246000fd5b600060208284031215612dca57600080fd5b610639826129c8565b634e487b7160e01b600052601160045260246000fd5b8082018082111561066457610664612dd3565b60208082526039908201527f496e766573746d656e74506c6174666f726d3a206d696c6573746f6e65496e6460408201527f657820646f6573206e6f74206d617463682063757272656e7400000000000000606082015260800190565b602080825260409082018190527f496e766573746d656e74506c6174666f726d3a204d696c6573746f6e65206576908201527f6964656e6365206973206e6f7420696e205375626d6974746564207374617465606082015260800190565b808202811582820484141761066457610664612dd3565b600082612eeb57634e487b7160e01b600052601260045260246000fd5b500490565b60ff818116838216019081111561066457610664612dd3565b60ff8416815260406020820152816040820152818360608301376000818301606090810191909152601f909201601f191601019291505056fe9b779b17422d0df92223018b32b4d1fa46e071723d6817e2486d003becc55f00a2646970667358221220a1f65f4a4f778331cd3b1a164d53a6e15a23c9c35f1473c1d82be8b8fe31ef8364736f6c63430008180033",
  "linkReferences": {},
  "deployedLinkReferences": {}
}